{
  "_format": "hh-sol-artifact-1",
  "contractName": "Vegetable",
  "sourceName": "contracts/Vegetable.sol",
  "abi": [
    {
      "inputs": [
        {
          "internalType": "uint104",
          "name": "_vegeID",
          "type": "uint104"
        },
        {
          "internalType": "string",
          "name": "_vegeName",
          "type": "string"
        },
        {
          "internalType": "string",
          "name": "_vegeFarm",
          "type": "string"
        },
        {
          "internalType": "string",
          "name": "_vegeFarmerName",
          "type": "string"
        },
        {
          "internalType": "string",
          "name": "_vegeDetail",
          "type": "string"
        }
      ],
      "stateMutability": "nonpayable",
      "type": "constructor"
    },
    {
      "inputs": [],
      "name": "VegeDetail",
      "outputs": [
        {
          "internalType": "string",
          "name": "",
          "type": "string"
        }
      ],
      "stateMutability": "view",
      "type": "function"
    },
    {
      "inputs": [],
      "name": "VegeFarm",
      "outputs": [
        {
          "internalType": "string",
          "name": "",
          "type": "string"
        }
      ],
      "stateMutability": "view",
      "type": "function"
    },
    {
      "inputs": [],
      "name": "VegeFarmerName",
      "outputs": [
        {
          "internalType": "string",
          "name": "",
          "type": "string"
        }
      ],
      "stateMutability": "view",
      "type": "function"
    },
    {
      "inputs": [],
      "name": "VegeID",
      "outputs": [
        {
          "internalType": "uint104",
          "name": "",
          "type": "uint104"
        }
      ],
      "stateMutability": "view",
      "type": "function"
    },
    {
      "inputs": [],
      "name": "VegeName",
      "outputs": [
        {
          "internalType": "string",
          "name": "",
          "type": "string"
        }
      ],
      "stateMutability": "view",
      "type": "function"
    },
    {
      "inputs": [],
      "name": "getVegeFarm",
      "outputs": [
        {
          "internalType": "string",
          "name": "",
          "type": "string"
        }
      ],
      "stateMutability": "view",
      "type": "function"
    },
    {
      "inputs": [],
      "name": "getVegeFarmerName",
      "outputs": [
        {
          "internalType": "string",
          "name": "",
          "type": "string"
        }
      ],
      "stateMutability": "view",
      "type": "function"
    },
    {
      "inputs": [],
      "name": "getVegeID",
      "outputs": [
        {
          "internalType": "uint104",
          "name": "",
          "type": "uint104"
        }
      ],
      "stateMutability": "view",
      "type": "function"
    },
    {
      "inputs": [],
      "name": "getVegeName",
      "outputs": [
        {
          "internalType": "string",
          "name": "",
          "type": "string"
        }
      ],
      "stateMutability": "view",
      "type": "function"
    },
    {
      "inputs": [],
      "name": "returnAll",
      "outputs": [
        {
          "internalType": "string",
          "name": "",
          "type": "string"
        },
        {
          "internalType": "uint256",
          "name": "",
          "type": "uint256"
        },
        {
          "internalType": "string",
          "name": "",
          "type": "string"
        },
        {
          "internalType": "string",
          "name": "",
          "type": "string"
        },
        {
          "internalType": "string",
          "name": "",
          "type": "string"
        }
      ],
      "stateMutability": "view",
      "type": "function"
    },
    {
      "inputs": [
        {
          "internalType": "string",
          "name": "_vegeName",
          "type": "string"
        },
        {
          "internalType": "string",
          "name": "_vegeFarm",
          "type": "string"
        },
        {
          "internalType": "string",
          "name": "_vegeFarmerName",
          "type": "string"
        },
        {
          "internalType": "string",
          "name": "_vegeDetail",
          "type": "string"
        }
      ],
      "name": "setVegeAll",
      "outputs": [],
      "stateMutability": "nonpayable",
      "type": "function"
    },
    {
      "inputs": [
        {
          "internalType": "string",
          "name": "_VegeFarm",
          "type": "string"
        }
      ],
      "name": "setVegeFarm",
      "outputs": [],
      "stateMutability": "nonpayable",
      "type": "function"
    },
    {
      "inputs": [
        {
          "internalType": "string",
          "name": "_VegeFarmerName",
          "type": "string"
        }
      ],
      "name": "setVegeFarmerName",
      "outputs": [],
      "stateMutability": "nonpayable",
      "type": "function"
    },
    {
      "inputs": [
        {
          "internalType": "uint104",
          "name": "_VegeID",
          "type": "uint104"
        }
      ],
      "name": "setVegeID",
      "outputs": [],
      "stateMutability": "nonpayable",
      "type": "function"
    },
    {
      "inputs": [
        {
          "internalType": "string",
          "name": "_VegeName",
          "type": "string"
        }
      ],
      "name": "setVegeName",
      "outputs": [],
      "stateMutability": "nonpayable",
      "type": "function"
    }
  ],
  "bytecode": "0x60806040523480156200001157600080fd5b506040516200184e3803806200184e83398181016040528101906200003791906200029a565b8360009081620000489190620005e9565b5084600160006101000a8154816cffffffffffffffffffffffffff02191690836cffffffffffffffffffffffffff16021790555082600290816200008d9190620005e9565b5081600390816200009f9190620005e9565b508060049081620000b19190620005e9565b505050505050620006d0565b6000604051905090565b600080fd5b600080fd5b60006cffffffffffffffffffffffffff82169050919050565b620000f581620000d1565b81146200010157600080fd5b50565b6000815190506200011581620000ea565b92915050565b600080fd5b600080fd5b6000601f19601f8301169050919050565b7f4e487b7100000000000000000000000000000000000000000000000000000000600052604160045260246000fd5b620001708262000125565b810181811067ffffffffffffffff8211171562000192576200019162000136565b5b80604052505050565b6000620001a7620000bd565b9050620001b5828262000165565b919050565b600067ffffffffffffffff821115620001d857620001d762000136565b5b620001e38262000125565b9050602081019050919050565b60005b8381101562000210578082015181840152602081019050620001f3565b60008484015250505050565b6000620002336200022d84620001ba565b6200019b565b90508281526020810184848401111562000252576200025162000120565b5b6200025f848285620001f0565b509392505050565b600082601f8301126200027f576200027e6200011b565b5b8151620002918482602086016200021c565b91505092915050565b600080600080600060a08688031215620002b957620002b8620000c7565b5b6000620002c98882890162000104565b955050602086015167ffffffffffffffff811115620002ed57620002ec620000cc565b5b620002fb8882890162000267565b945050604086015167ffffffffffffffff8111156200031f576200031e620000cc565b5b6200032d8882890162000267565b935050606086015167ffffffffffffffff811115620003515762000350620000cc565b5b6200035f8882890162000267565b925050608086015167ffffffffffffffff811115620003835762000382620000cc565b5b620003918882890162000267565b9150509295509295909350565b600081519050919050565b7f4e487b7100000000000000000000000000000000000000000000000000000000600052602260045260246000fd5b60006002820490506001821680620003f157607f821691505b602082108103620004075762000406620003a9565b5b50919050565b60008190508160005260206000209050919050565b60006020601f8301049050919050565b600082821b905092915050565b600060088302620004717fffffffffffffffffffffffffffffffffffffffffffffffffffffffffffffffff8262000432565b6200047d868362000432565b95508019841693508086168417925050509392505050565b6000819050919050565b6000819050919050565b6000620004ca620004c4620004be8462000495565b6200049f565b62000495565b9050919050565b6000819050919050565b620004e683620004a9565b620004fe620004f582620004d1565b8484546200043f565b825550505050565b600090565b6200051562000506565b62000522818484620004db565b505050565b5b818110156200054a576200053e6000826200050b565b60018101905062000528565b5050565b601f821115620005995762000563816200040d565b6200056e8462000422565b810160208510156200057e578190505b620005966200058d8562000422565b83018262000527565b50505b505050565b600082821c905092915050565b6000620005be600019846008026200059e565b1980831691505092915050565b6000620005d98383620005ab565b9150826002028217905092915050565b620005f4826200039e565b67ffffffffffffffff81111562000610576200060f62000136565b5b6200061c8254620003d8565b620006298282856200054e565b600060209050601f8311600181146200066157600084156200064c578287015190505b620006588582620005cb565b865550620006c8565b601f19841662000671866200040d565b60005b828110156200069b5784890151825560018201915060208501945060208101905062000674565b86831015620006bb5784890151620006b7601f891682620005ab565b8355505b6001600288020188555050505b505050505050565b61116e80620006e06000396000f3fe608060405234801561001057600080fd5b50600436106100f55760003560e01c80638b004f9311610097578063a335285611610066578063a335285614610244578063b5b7fa6b14610260578063b8bd0f001461027c578063c275cc9514610298576100f5565b80638b004f93146101ce5780638e530c15146101ec578063917a86c514610208578063a2f55d8914610226576100f5565b8063323e3236116100d3578063323e3236146101525780635ff9ab6c1461017057806362257a151461018e57806385b1423e146101ac576100f5565b80630b6d0136146100fa5780632181fe5a146101185780632311947814610134575b600080fd5b6101026102b6565b60405161010f9190610aab565b60405180910390f35b610132600480360381019061012d9190610c16565b610348565b005b61013c61038e565b6040516101499190610aab565b60405180910390f35b61015a61041c565b6040516101679190610d15565b60405180910390f35b61017861043f565b6040516101859190610aab565b60405180910390f35b6101966104d1565b6040516101a39190610aab565b60405180910390f35b6101b461055f565b6040516101c5959493929190610d49565b60405180910390f35b6101d66107df565b6040516101e39190610aab565b60405180910390f35b61020660048036038101906102019190610db8565b610871565b005b610210610884565b60405161021d9190610aab565b60405180910390f35b61022e610912565b60405161023b9190610aab565b60405180910390f35b61025e60048036038101906102599190610e2d565b6109a0565b005b61027a60048036038101906102759190610db8565b6109d6565b005b61029660048036038101906102919190610db8565b6109e9565b005b6102a06109fc565b6040516102ad9190610d15565b60405180910390f35b6060600280546102c590610e89565b80601f01602080910402602001604051908101604052809291908181526020018280546102f190610e89565b801561033e5780601f106103135761010080835404028352916020019161033e565b820191906000526020600020905b81548152906001019060200180831161032157829003601f168201915b5050505050905090565b83600090816103579190611066565b5082600290816103679190611066565b5081600390816103779190611066565b5080600490816103879190611066565b5050505050565b6002805461039b90610e89565b80601f01602080910402602001604051908101604052809291908181526020018280546103c790610e89565b80156104145780601f106103e957610100808354040283529160200191610414565b820191906000526020600020905b8154815290600101906020018083116103f757829003601f168201915b505050505081565b6000600160009054906101000a90046cffffffffffffffffffffffffff16905090565b60606000805461044e90610e89565b80601f016020809104026020016040519081016040528092919081815260200182805461047a90610e89565b80156104c75780601f1061049c576101008083540402835291602001916104c7565b820191906000526020600020905b8154815290600101906020018083116104aa57829003601f168201915b5050505050905090565b600080546104de90610e89565b80601f016020809104026020016040519081016040528092919081815260200182805461050a90610e89565b80156105575780601f1061052c57610100808354040283529160200191610557565b820191906000526020600020905b81548152906001019060200180831161053a57829003601f168201915b505050505081565b6060600060608060606000600160009054906101000a90046cffffffffffffffffffffffffff1660026003600484805461059890610e89565b80601f01602080910402602001604051908101604052809291908181526020018280546105c490610e89565b80156106115780601f106105e657610100808354040283529160200191610611565b820191906000526020600020905b8154815290600101906020018083116105f457829003601f168201915b50505050509450836cffffffffffffffffffffffffff16935082805461063690610e89565b80601f016020809104026020016040519081016040528092919081815260200182805461066290610e89565b80156106af5780601f10610684576101008083540402835291602001916106af565b820191906000526020600020905b81548152906001019060200180831161069257829003601f168201915b505050505092508180546106c290610e89565b80601f01602080910402602001604051908101604052809291908181526020018280546106ee90610e89565b801561073b5780601f106107105761010080835404028352916020019161073b565b820191906000526020600020905b81548152906001019060200180831161071e57829003601f168201915b5050505050915080805461074e90610e89565b80601f016020809104026020016040519081016040528092919081815260200182805461077a90610e89565b80156107c75780601f1061079c576101008083540402835291602001916107c7565b820191906000526020600020905b8154815290600101906020018083116107aa57829003601f168201915b50505050509050945094509450945094509091929394565b6060600080546107ee90610e89565b80601f016020809104026020016040519081016040528092919081815260200182805461081a90610e89565b80156108675780601f1061083c57610100808354040283529160200191610867565b820191906000526020600020905b81548152906001019060200180831161084a57829003601f168201915b5050505050905090565b80600090816108809190611066565b5050565b6004805461089190610e89565b80601f01602080910402602001604051908101604052809291908181526020018280546108bd90610e89565b801561090a5780601f106108df5761010080835404028352916020019161090a565b820191906000526020600020905b8154815290600101906020018083116108ed57829003601f168201915b505050505081565b6003805461091f90610e89565b80601f016020809104026020016040519081016040528092919081815260200182805461094b90610e89565b80156109985780601f1061096d57610100808354040283529160200191610998565b820191906000526020600020905b81548152906001019060200180831161097b57829003601f168201915b505050505081565b80600160006101000a8154816cffffffffffffffffffffffffff02191690836cffffffffffffffffffffffffff16021790555050565b80600290816109e59190611066565b5050565b80600390816109f89190611066565b5050565b600160009054906101000a90046cffffffffffffffffffffffffff1681565b600081519050919050565b600082825260208201905092915050565b60005b83811015610a55578082015181840152602081019050610a3a565b60008484015250505050565b6000601f19601f8301169050919050565b6000610a7d82610a1b565b610a878185610a26565b9350610a97818560208601610a37565b610aa081610a61565b840191505092915050565b60006020820190508181036000830152610ac58184610a72565b905092915050565b6000604051905090565b600080fd5b600080fd5b600080fd5b600080fd5b7f4e487b7100000000000000000000000000000000000000000000000000000000600052604160045260246000fd5b610b2382610a61565b810181811067ffffffffffffffff82111715610b4257610b41610aeb565b5b80604052505050565b6000610b55610acd565b9050610b618282610b1a565b919050565b600067ffffffffffffffff821115610b8157610b80610aeb565b5b610b8a82610a61565b9050602081019050919050565b82818337600083830152505050565b6000610bb9610bb484610b66565b610b4b565b905082815260208101848484011115610bd557610bd4610ae6565b5b610be0848285610b97565b509392505050565b600082601f830112610bfd57610bfc610ae1565b5b8135610c0d848260208601610ba6565b91505092915050565b60008060008060808587031215610c3057610c2f610ad7565b5b600085013567ffffffffffffffff811115610c4e57610c4d610adc565b5b610c5a87828801610be8565b945050602085013567ffffffffffffffff811115610c7b57610c7a610adc565b5b610c8787828801610be8565b935050604085013567ffffffffffffffff811115610ca857610ca7610adc565b5b610cb487828801610be8565b925050606085013567ffffffffffffffff811115610cd557610cd4610adc565b5b610ce187828801610be8565b91505092959194509250565b60006cffffffffffffffffffffffffff82169050919050565b610d0f81610ced565b82525050565b6000602082019050610d2a6000830184610d06565b92915050565b6000819050919050565b610d4381610d30565b82525050565b600060a0820190508181036000830152610d638188610a72565b9050610d726020830187610d3a565b8181036040830152610d848186610a72565b90508181036060830152610d988185610a72565b90508181036080830152610dac8184610a72565b90509695505050505050565b600060208284031215610dce57610dcd610ad7565b5b600082013567ffffffffffffffff811115610dec57610deb610adc565b5b610df884828501610be8565b91505092915050565b610e0a81610ced565b8114610e1557600080fd5b50565b600081359050610e2781610e01565b92915050565b600060208284031215610e4357610e42610ad7565b5b6000610e5184828501610e18565b91505092915050565b7f4e487b7100000000000000000000000000000000000000000000000000000000600052602260045260246000fd5b60006002820490506001821680610ea157607f821691505b602082108103610eb457610eb3610e5a565b5b50919050565b60008190508160005260206000209050919050565b60006020601f8301049050919050565b600082821b905092915050565b600060088302610f1c7fffffffffffffffffffffffffffffffffffffffffffffffffffffffffffffffff82610edf565b610f268683610edf565b95508019841693508086168417925050509392505050565b6000819050919050565b6000610f63610f5e610f5984610d30565b610f3e565b610d30565b9050919050565b6000819050919050565b610f7d83610f48565b610f91610f8982610f6a565b848454610eec565b825550505050565b600090565b610fa6610f99565b610fb1818484610f74565b505050565b5b81811015610fd557610fca600082610f9e565b600181019050610fb7565b5050565b601f82111561101a57610feb81610eba565b610ff484610ecf565b81016020851015611003578190505b61101761100f85610ecf565b830182610fb6565b50505b505050565b600082821c905092915050565b600061103d6000198460080261101f565b1980831691505092915050565b6000611056838361102c565b9150826002028217905092915050565b61106f82610a1b565b67ffffffffffffffff81111561108857611087610aeb565b5b6110928254610e89565b61109d828285610fd9565b600060209050601f8311600181146110d057600084156110be578287015190505b6110c8858261104a565b865550611130565b601f1984166110de86610eba565b60005b82811015611106578489015182556001820191506020850194506020810190506110e1565b86831015611123578489015161111f601f89168261102c565b8355505b6001600288020188555050505b50505050505056fea2646970667358221220b5d2c6fb46ea8800e662141c69d0b5da40eff4fca1db5a9b9e8586b663ce29e864736f6c63430008130033",
  "linkReferences": {},
  "deployedLinkReferences": {}
}