{
  "_format": "hh-sol-artifact-1",
  "contractName": "Counter",
  "sourceName": "contracts/Counter.sol",
  "abi": [
    {
      "inputs": [],
      "stateMutability": "nonpayable",
      "type": "constructor"
    },
    {
      "inputs": [],
      "name": "getCount",
      "outputs": [
        {
          "internalType": "uint256",
          "name": "",
          "type": "uint256"
        }
      ],
      "stateMutability": "view",
      "type": "function"
    },
    {
      "inputs": [],
      "name": "increment",
      "outputs": [],
      "stateMutability": "nonpayable",
      "type": "function"
    }
  ],
  "bytecode": "0x608060405234801561001057600080fd5b5060008081905550610154806100276000396000f3fe608060405234801561001057600080fd5b50600436106100365760003560e01c8063a87d942c1461003b578063d09de08a14610059575b600080fd5b610043610063565b60405161005091906100a0565b60405180910390f35b61006161006c565b005b60008054905090565b600160008082825461007e91906100ea565b92505081905550565b6000819050919050565b61009a81610087565b82525050565b60006020820190506100b56000830184610091565b92915050565b7f4e487b7100000000000000000000000000000000000000000000000000000000600052601160045260246000fd5b60006100f582610087565b915061010083610087565b9250828201905080821115610118576101176100bb565b5b9291505056fea26469706673582212203ac32af537d5cbd40816918d7aaeddb7337426321982ae1fc02cdc1cb9370dfc64736f6c63430008130033",
  "linkReferences": {},
  "deployedLinkReferences": {}
}